{
  "contractName": "ERC721",
  "abi": [
    {
      "inputs": [],
      "payable": false,
      "stateMutability": "nonpayable",
      "type": "constructor"
    },
    {
      "anonymous": false,
      "inputs": [
        {
          "indexed": true,
          "internalType": "address",
          "name": "owner",
          "type": "address"
        },
        {
          "indexed": true,
          "internalType": "address",
          "name": "approved",
          "type": "address"
        },
        {
          "indexed": true,
          "internalType": "uint256",
          "name": "tokenId",
          "type": "uint256"
        }
      ],
      "name": "Approval",
      "type": "event"
    },
    {
      "anonymous": false,
      "inputs": [
        {
          "indexed": true,
          "internalType": "address",
          "name": "owner",
          "type": "address"
        },
        {
          "indexed": true,
          "internalType": "address",
          "name": "operator",
          "type": "address"
        },
        {
          "indexed": false,
          "internalType": "bool",
          "name": "approved",
          "type": "bool"
        }
      ],
      "name": "ApprovalForAll",
      "type": "event"
    },
    {
      "anonymous": false,
      "inputs": [
        {
          "indexed": true,
          "internalType": "address",
          "name": "from",
          "type": "address"
        },
        {
          "indexed": true,
          "internalType": "address",
          "name": "to",
          "type": "address"
        },
        {
          "indexed": true,
          "internalType": "uint256",
          "name": "tokenId",
          "type": "uint256"
        }
      ],
      "name": "Transfer",
      "type": "event"
    },
    {
      "constant": true,
      "inputs": [],
      "name": "_contractOwner",
      "outputs": [
        {
          "internalType": "address payable",
          "name": "",
          "type": "address"
        }
      ],
      "payable": false,
      "stateMutability": "view",
      "type": "function"
    },
    {
      "constant": true,
      "inputs": [],
      "name": "_name",
      "outputs": [
        {
          "internalType": "string",
          "name": "",
          "type": "string"
        }
      ],
      "payable": false,
      "stateMutability": "view",
      "type": "function"
    },
    {
      "constant": true,
      "inputs": [
        {
          "internalType": "address",
          "name": "",
          "type": "address"
        },
        {
          "internalType": "uint256",
          "name": "",
          "type": "uint256"
        }
      ],
      "name": "_ownerTokenIndex",
      "outputs": [
        {
          "internalType": "uint256",
          "name": "",
          "type": "uint256"
        }
      ],
      "payable": false,
      "stateMutability": "view",
      "type": "function"
    },
    {
      "constant": true,
      "inputs": [],
      "name": "_symbol",
      "outputs": [
        {
          "internalType": "string",
          "name": "",
          "type": "string"
        }
      ],
      "payable": false,
      "stateMutability": "view",
      "type": "function"
    },
    {
      "constant": true,
      "inputs": [
        {
          "internalType": "uint256",
          "name": "",
          "type": "uint256"
        }
      ],
      "name": "_tokenOwners",
      "outputs": [
        {
          "internalType": "address",
          "name": "",
          "type": "address"
        }
      ],
      "payable": false,
      "stateMutability": "view",
      "type": "function"
    },
    {
      "constant": true,
      "inputs": [
        {
          "internalType": "uint256",
          "name": "",
          "type": "uint256"
        }
      ],
      "name": "petObjArray1",
      "outputs": [
        {
          "internalType": "address",
          "name": "owner",
          "type": "address"
        },
        {
          "internalType": "uint256",
          "name": "id",
          "type": "uint256"
        },
        {
          "internalType": "string",
          "name": "uri",
          "type": "string"
        },
        {
          "internalType": "uint256",
          "name": "price_in_wei",
          "type": "uint256"
        },
        {
          "internalType": "string",
          "name": "breed",
          "type": "string"
        },
        {
          "internalType": "string",
          "name": "location",
          "type": "string"
        },
        {
          "internalType": "uint256",
          "name": "age",
          "type": "uint256"
        }
      ],
      "payable": false,
      "stateMutability": "view",
      "type": "function"
    },
    {
      "constant": true,
      "inputs": [
        {
          "internalType": "bytes4",
          "name": "interfaceId",
          "type": "bytes4"
        }
      ],
      "name": "supportsInterface",
      "outputs": [
        {
          "internalType": "bool",
          "name": "",
          "type": "bool"
        }
      ],
      "payable": false,
      "stateMutability": "view",
      "type": "function"
    },
    {
      "constant": true,
      "inputs": [],
      "name": "tokenIdCounter",
      "outputs": [
        {
          "internalType": "uint256",
          "name": "",
          "type": "uint256"
        }
      ],
      "payable": false,
      "stateMutability": "view",
      "type": "function"
    },
    {
      "constant": false,
      "inputs": [
        {
          "internalType": "string",
          "name": "petUri",
          "type": "string"
        },
        {
          "internalType": "uint256",
          "name": "price",
          "type": "uint256"
        },
        {
          "internalType": "string",
          "name": "breed",
          "type": "string"
        },
        {
          "internalType": "string",
          "name": "location",
          "type": "string"
        },
        {
          "internalType": "uint256",
          "name": "age",
          "type": "uint256"
        }
      ],
      "name": "_mint",
      "outputs": [
        {
          "components": [
            {
              "internalType": "address",
              "name": "owner",
              "type": "address"
            },
            {
              "internalType": "uint256",
              "name": "id",
              "type": "uint256"
            },
            {
              "internalType": "string",
              "name": "uri",
              "type": "string"
            },
            {
              "internalType": "uint256",
              "name": "price_in_wei",
              "type": "uint256"
            },
            {
              "internalType": "string",
              "name": "breed",
              "type": "string"
            },
            {
              "internalType": "string",
              "name": "location",
              "type": "string"
            },
            {
              "internalType": "uint256",
              "name": "age",
              "type": "uint256"
            }
          ],
          "internalType": "struct ERC721.petObj",
          "name": "",
          "type": "tuple"
        }
      ],
      "payable": false,
      "stateMutability": "nonpayable",
      "type": "function"
    },
    {
      "constant": true,
      "inputs": [
        {
          "internalType": "address",
          "name": "owner",
          "type": "address"
        }
      ],
      "name": "balanceOf",
      "outputs": [
        {
          "internalType": "uint256",
          "name": "balance",
          "type": "uint256"
        }
      ],
      "payable": false,
      "stateMutability": "view",
      "type": "function"
    },
    {
      "constant": true,
      "inputs": [
        {
          "internalType": "uint256",
          "name": "tokenId",
          "type": "uint256"
        }
      ],
      "name": "ownerOf",
      "outputs": [
        {
          "internalType": "address",
          "name": "owner",
          "type": "address"
        }
      ],
      "payable": false,
      "stateMutability": "view",
      "type": "function"
    },
    {
      "constant": false,
      "inputs": [
        {
          "internalType": "address",
          "name": "to",
          "type": "address"
        },
        {
          "internalType": "uint256",
          "name": "tokenId",
          "type": "uint256"
        }
      ],
      "name": "_transfer",
      "outputs": [],
      "payable": false,
      "stateMutability": "nonpayable",
      "type": "function"
    },
    {
      "constant": false,
      "inputs": [
        {
          "internalType": "uint256",
          "name": "tokenID",
          "type": "uint256"
        }
      ],
      "name": "Buy",
      "outputs": [],
      "payable": true,
      "stateMutability": "payable",
      "type": "function"
    },
    {
      "constant": false,
      "inputs": [
        {
          "internalType": "address",
          "name": "from",
          "type": "address"
        },
        {
          "internalType": "address",
          "name": "to",
          "type": "address"
        },
        {
          "internalType": "uint256",
          "name": "tokenId",
          "type": "uint256"
        }
      ],
      "name": "transferFrom",
      "outputs": [],
      "payable": false,
      "stateMutability": "nonpayable",
      "type": "function"
    },
    {
      "constant": false,
      "inputs": [
        {
          "internalType": "address",
          "name": "to",
          "type": "address"
        },
        {
          "internalType": "uint256",
          "name": "tokenId",
          "type": "uint256"
        }
      ],
      "name": "approve",
      "outputs": [],
      "payable": false,
      "stateMutability": "nonpayable",
      "type": "function"
    },
    {
      "constant": true,
      "inputs": [
        {
          "internalType": "uint256",
          "name": "tokenId",
          "type": "uint256"
        }
      ],
      "name": "getApproved",
      "outputs": [
        {
          "internalType": "address",
          "name": "operator",
          "type": "address"
        }
      ],
      "payable": false,
      "stateMutability": "view",
      "type": "function"
    },
    {
      "constant": false,
      "inputs": [
        {
          "internalType": "address",
          "name": "operator",
          "type": "address"
        },
        {
          "internalType": "bool",
          "name": "_approved",
          "type": "bool"
        }
      ],
      "name": "setApprovalForAll",
      "outputs": [],
      "payable": false,
      "stateMutability": "nonpayable",
      "type": "function"
    },
    {
      "constant": true,
      "inputs": [
        {
          "internalType": "address",
          "name": "owner",
          "type": "address"
        },
        {
          "internalType": "address",
          "name": "operator",
          "type": "address"
        }
      ],
      "name": "isApprovedForAll",
      "outputs": [
        {
          "internalType": "bool",
          "name": "",
          "type": "bool"
        }
      ],
      "payable": false,
      "stateMutability": "view",
      "type": "function"
    },
    {
      "constant": false,
      "inputs": [
        {
          "internalType": "address",
          "name": "_from",
          "type": "address"
        },
        {
          "internalType": "address",
          "name": "_to",
          "type": "address"
        },
        {
          "internalType": "uint256",
          "name": "_tokenId",
          "type": "uint256"
        }
      ],
      "name": "safeTransferFrom",
      "outputs": [],
      "payable": true,
      "stateMutability": "payable",
      "type": "function"
    },
    {
      "constant": false,
      "inputs": [
        {
          "internalType": "address",
          "name": "_from",
          "type": "address"
        },
        {
          "internalType": "address",
          "name": "_to",
          "type": "address"
        },
        {
          "internalType": "uint256",
          "name": "_tokenId",
          "type": "uint256"
        },
        {
          "internalType": "bytes",
          "name": "data",
          "type": "bytes"
        }
      ],
      "name": "safeTransferFrom",
      "outputs": [],
      "payable": true,
      "stateMutability": "payable",
      "type": "function"
    },
    {
      "constant": true,
      "inputs": [],
      "name": "getData",
      "outputs": [
        {
          "components": [
            {
              "internalType": "address",
              "name": "owner",
              "type": "address"
            },
            {
              "internalType": "uint256",
              "name": "id",
              "type": "uint256"
            },
            {
              "internalType": "string",
              "name": "uri",
              "type": "string"
            },
            {
              "internalType": "uint256",
              "name": "price_in_wei",
              "type": "uint256"
            },
            {
              "internalType": "string",
              "name": "breed",
              "type": "string"
            },
            {
              "internalType": "string",
              "name": "location",
              "type": "string"
            },
            {
              "internalType": "uint256",
              "name": "age",
              "type": "uint256"
            }
          ],
          "internalType": "struct ERC721.petObj[]",
          "name": "",
          "type": "tuple[]"
        }
      ],
      "payable": false,
      "stateMutability": "view",
      "type": "function"
    },
    {
      "constant": true,
      "inputs": [],
      "name": "getBalance",
      "outputs": [
        {
          "internalType": "uint256",
          "name": "",
          "type": "uint256"
        }
      ],
      "payable": false,
      "stateMutability": "view",
      "type": "function"
    }
  ],
  "bytecode": "0x608060405260006005553480156200001657600080fd5b506200002f6301ffc9a760e01b6200012a60201b60201c565b6040518060400160405280600d81526020017f77617161732d70657453686f7000000000000000000000000000000000000000815250600190805190602001906200007c92919062000202565b506040518060400160405280600381526020017f575053000000000000000000000000000000000000000000000000000000000081525060029080519060200190620000ca92919062000202565b5033600360006101000a81548173ffffffffffffffffffffffffffffffffffffffff021916908373ffffffffffffffffffffffffffffffffffffffff160217905550620001246380ac58cd60e01b6200012a60201b60201c565b62000326565b63ffffffff60e01b817bffffffffffffffffffffffffffffffffffffffffffffffffffffffff1916141562000196576040517f08c379a00000000000000000000000000000000000000000000000000000000081526004016200018d90620002f3565b60405180910390fd5b6001600080837bffffffffffffffffffffffffffffffffffffffffffffffffffffffff19167bffffffffffffffffffffffffffffffffffffffffffffffffffffffff1916815260200190815260200160002060006101000a81548160ff02191690831515021790555050565b828054600181600116156101000203166002900490600052602060002090601f016020900481019282601f106200024557805160ff191683800117855562000276565b8280016001018555821562000276579182015b828111156200027557825182559160200191906001019062000258565b5b50905062000285919062000289565b5090565b620002ae91905b80821115620002aa57600081600090555060010162000290565b5090565b90565b6000620002c0601c8362000315565b91507f4552433136353a20696e76616c696420696e74657266616365206964000000006000830152602082019050919050565b600060208201905081810360008301526200030e81620002b1565b9050919050565b600082825260208201905092915050565b612f0e80620003366000396000f3fe6080604052600436106101355760003560e01c80636352211e116100ab578063a22cb4651161006f578063a22cb4651461044a578063b09f126614610473578063b88d4fde1461049e578063d1dec178146104ba578063d28d8852146104f7578063e985e9c51461052257610135565b80636352211e1461032b57806370a08231146103685780637961695a146103a557806392673ff5146103e257806398bdf6f51461041f57610135565b806323b872dd116100fd57806323b872dd1461024b5780632bb3b114146102745780633bc5de301461029f5780633e328218146102ca57806342842e0e146102e65780634847a79c1461030257610135565b806301ffc9a71461013a578063081812fc14610177578063095ea7b3146101b457806312065fe0146101dd57806316c36cd114610208575b600080fd5b34801561014657600080fd5b50610161600480360361015c91908101906122d7565b61055f565b60405161016e9190612b1d565b60405180910390f35b34801561018357600080fd5b5061019e600480360361019991908101906123bf565b6105c6565b6040516101ab9190612a41565b60405180910390f35b3480156101c057600080fd5b506101db60048036036101d6919081019061229b565b6105cd565b005b3480156101e957600080fd5b506101f26105d1565b6040516101ff9190612cbc565b60405180910390f35b34801561021457600080fd5b5061022f600480360361022a91908101906123bf565b6105d9565b6040516102429796959493929190612a77565b60405180910390f35b34801561025757600080fd5b50610272600480360361026d9190810190612190565b610810565b005b34801561028057600080fd5b5061028961081b565b6040516102969190612a5c565b60405180910390f35b3480156102ab57600080fd5b506102b4610841565b6040516102c19190612afb565b60405180910390f35b6102e460048036036102df91908101906123bf565b610afa565b005b61030060048036036102fb9190810190612190565b611090565b005b34801561030e57600080fd5b506103296004803603610324919081019061229b565b611095565b005b34801561033757600080fd5b50610352600480360361034d91908101906123bf565b611235565b60405161035f9190612a41565b60405180910390f35b34801561037457600080fd5b5061038f600480360361038a919081019061212b565b6112e7565b60405161039c9190612cbc565b60405180910390f35b3480156103b157600080fd5b506103cc60048036036103c79190810190612300565b6113a2565b6040516103d99190612c9a565b60405180910390f35b3480156103ee57600080fd5b50610409600480360361040491908101906123bf565b6117cc565b6040516104169190612a41565b60405180910390f35b34801561042b57600080fd5b506104346117ff565b6040516104419190612cbc565b60405180910390f35b34801561045657600080fd5b50610471600480360361046c919081019061225f565b611805565b005b34801561047f57600080fd5b50610488611809565b6040516104959190612b38565b60405180910390f35b6104b860048036036104b391908101906121df565b6118a7565b005b3480156104c657600080fd5b506104e160048036036104dc919081019061229b565b6118ae565b6040516104ee9190612cbc565b60405180910390f35b34801561050357600080fd5b5061050c6118d3565b6040516105199190612b38565b60405180910390f35b34801561052e57600080fd5b5061054960048036036105449190810190612154565b611971565b6040516105569190612b1d565b60405180910390f35b6000806000837bffffffffffffffffffffffffffffffffffffffffffffffffffffffff19167bffffffffffffffffffffffffffffffffffffffffffffffffffffffff1916815260200190815260200160002060009054906101000a900460ff169050919050565b6000919050565b5050565b600047905090565b600481815481106105e657fe5b90600052602060002090600702016000915090508060000160009054906101000a900473ffffffffffffffffffffffffffffffffffffffff1690806001015490806002018054600181600116156101000203166002900480601f0160208091040260200160405190810160405280929190818152602001828054600181600116156101000203166002900480156106be5780601f10610693576101008083540402835291602001916106be565b820191906000526020600020905b8154815290600101906020018083116106a157829003601f168201915b505050505090806003015490806004018054600181600116156101000203166002900480601f0160208091040260200160405190810160405280929190818152602001828054600181600116156101000203166002900480156107625780601f1061073757610100808354040283529160200191610762565b820191906000526020600020905b81548152906001019060200180831161074557829003601f168201915b505050505090806005018054600181600116156101000203166002900480601f0160208091040260200160405190810160405280929190818152602001828054600181600116156101000203166002900480156108005780601f106107d557610100808354040283529160200191610800565b820191906000526020600020905b8154815290600101906020018083116107e357829003601f168201915b5050505050908060060154905087565b600080905050505050565b600360009054906101000a900473ffffffffffffffffffffffffffffffffffffffff1681565b60606004805480602002602001604051908101604052809291908181526020016000905b82821015610af157838290600052602060002090600702016040518060e00160405290816000820160009054906101000a900473ffffffffffffffffffffffffffffffffffffffff1673ffffffffffffffffffffffffffffffffffffffff1673ffffffffffffffffffffffffffffffffffffffff16815260200160018201548152602001600282018054600181600116156101000203166002900480601f0160208091040260200160405190810160405280929190818152602001828054600181600116156101000203166002900480156109815780601f1061095657610100808354040283529160200191610981565b820191906000526020600020905b81548152906001019060200180831161096457829003601f168201915b5050505050815260200160038201548152602001600482018054600181600116156101000203166002900480601f016020809104026020016040519081016040528092919081815260200182805460018160011615610100020316600290048015610a2d5780601f10610a0257610100808354040283529160200191610a2d565b820191906000526020600020905b815481529060010190602001808311610a1057829003601f168201915b50505050508152602001600582018054600181600116156101000203166002900480601f016020809104026020016040519081016040528092919081815260200182805460018160011615610100020316600290048015610acf5780601f10610aa457610100808354040283529160200191610acf565b820191906000526020600020905b815481529060010190602001808311610ab257829003601f168201915b5050505050815260200160068201548152505081526020019060010190610865565b50505050905090565b610b038161197d565b610b42576040517f08c379a0000000000000000000000000000000000000000000000000000000008152600401610b3990612bba565b60405180910390fd5b3460048281548110610b5057fe5b9060005260206000209060070201600301541115610ba3576040517f08c379a0000000000000000000000000000000000000000000000000000000008152600401610b9a90612b5a565b60405180910390fd5b600060048281548110610bb257fe5b906000526020600020906007020160000160009054906101000a900473ffffffffffffffffffffffffffffffffffffffff1690503360048381548110610bf457fe5b906000526020600020906007020160000160006101000a81548173ffffffffffffffffffffffffffffffffffffffff021916908373ffffffffffffffffffffffffffffffffffffffff160217905550600760003373ffffffffffffffffffffffffffffffffffffffff1673ffffffffffffffffffffffffffffffffffffffff16815260200190815260200160002082908060018154018082558091505090600182039060005260206000200160009091929091909150555060006001600760003373ffffffffffffffffffffffffffffffffffffffff1673ffffffffffffffffffffffffffffffffffffffff1681526020019081526020016000208054905003905080600860003373ffffffffffffffffffffffffffffffffffffffff1673ffffffffffffffffffffffffffffffffffffffff168152602001908152602001600020600085815260200190815260200160002081905550336009600085815260200190815260200160002060006101000a81548173ffffffffffffffffffffffffffffffffffffffff021916908373ffffffffffffffffffffffffffffffffffffffff1602179055506000600860008473ffffffffffffffffffffffffffffffffffffffff1673ffffffffffffffffffffffffffffffffffffffff16815260200190815260200160002060008581526020019081526020016000205490506001600760008573ffffffffffffffffffffffffffffffffffffffff1673ffffffffffffffffffffffffffffffffffffffff168152602001908152602001600020805490501115610f8b576000600760008573ffffffffffffffffffffffffffffffffffffffff1673ffffffffffffffffffffffffffffffffffffffff1681526020019081526020016000206001600760008773ffffffffffffffffffffffffffffffffffffffff1673ffffffffffffffffffffffffffffffffffffffff168152602001908152602001600020805490500381548110610ece57fe5b9060005260206000200154905080600760008673ffffffffffffffffffffffffffffffffffffffff1673ffffffffffffffffffffffffffffffffffffffff1681526020019081526020016000208381548110610f2657fe5b906000526020600020018190555081600860008673ffffffffffffffffffffffffffffffffffffffff1673ffffffffffffffffffffffffffffffffffffffff168152602001908152602001600020600083815260200190815260200160002081905550505b600760008473ffffffffffffffffffffffffffffffffffffffff1673ffffffffffffffffffffffffffffffffffffffff168152602001908152602001600020805480610fd357fe5b60019003818190600052602060002001600090559055600860008473ffffffffffffffffffffffffffffffffffffffff1673ffffffffffffffffffffffffffffffffffffffff16815260200190815260200160002060008581526020019081526020016000206000905560008390508073ffffffffffffffffffffffffffffffffffffffff166108fc349081150290604051600060405180830381858888f19350505050158015611088573d6000803e3d6000fd5b505050505050565b505050565b600081116110d8576040517f08c379a00000000000000000000000000000000000000000000000000000000081526004016110cf90612c3a565b60405180910390fd5b3373ffffffffffffffffffffffffffffffffffffffff166110f882611235565b73ffffffffffffffffffffffffffffffffffffffff161461114e576040517f08c379a000000000000000000000000000000000000000000000000000000000815260040161114590612c1a565b60405180910390fd5b600073ffffffffffffffffffffffffffffffffffffffff168273ffffffffffffffffffffffffffffffffffffffff1614156111be576040517f08c379a00000000000000000000000000000000000000000000000000000000081526004016111b590612b9a565b60405180910390fd5b6111c833826119ff565b50506111d48282611d29565b5050808273ffffffffffffffffffffffffffffffffffffffff163373ffffffffffffffffffffffffffffffffffffffff167fddf252ad1be2c89b69c2b068fc378daa952ba7f163c4a11628f55a4df523b3ef60405160405180910390a45050565b6000806009600084815260200190815260200160002060009054906101000a900473ffffffffffffffffffffffffffffffffffffffff169050600073ffffffffffffffffffffffffffffffffffffffff168173ffffffffffffffffffffffffffffffffffffffff1614156112de576040517f08c379a00000000000000000000000000000000000000000000000000000000081526004016112d590612bfa565b60405180910390fd5b80915050919050565b60008073ffffffffffffffffffffffffffffffffffffffff168273ffffffffffffffffffffffffffffffffffffffff161415611358576040517f08c379a000000000000000000000000000000000000000000000000000000000815260040161134f90612bda565b60405180910390fd5b600760008373ffffffffffffffffffffffffffffffffffffffff1673ffffffffffffffffffffffffffffffffffffffff168152602001908152602001600020805490509050919050565b6113aa611f41565b600360009054906101000a900473ffffffffffffffffffffffffffffffffffffffff1673ffffffffffffffffffffffffffffffffffffffff163373ffffffffffffffffffffffffffffffffffffffff161461143a576040517f08c379a000000000000000000000000000000000000000000000000000000000815260040161143190612c5a565b60405180910390fd5b6114506001600654611eec90919063ffffffff16565b60068190555061145e611f41565b6040518060e00160405280600360009054906101000a900473ffffffffffffffffffffffffffffffffffffffff1673ffffffffffffffffffffffffffffffffffffffff16815260200160055481526020018881526020018781526020018681526020018581526020018481525090506004819080600181540180825580915050906001820390600052602060002090600702016000909192909190915060008201518160000160006101000a81548173ffffffffffffffffffffffffffffffffffffffff021916908373ffffffffffffffffffffffffffffffffffffffff160217905550602082015181600101556040820151816002019080519060200190611568929190611f94565b5060608201518160030155608082015181600401908051906020019061158f929190611f94565b5060a08201518160050190805190602001906115ac929190611f94565b5060c08201518160060155505050600360009054906101000a900473ffffffffffffffffffffffffffffffffffffffff1660096000600554815260200190815260200160002060006101000a81548173ffffffffffffffffffffffffffffffffffffffff021916908373ffffffffffffffffffffffffffffffffffffffff16021790555060076000600360009054906101000a900473ffffffffffffffffffffffffffffffffffffffff1673ffffffffffffffffffffffffffffffffffffffff1673ffffffffffffffffffffffffffffffffffffffff16815260200190815260200160002060055490806001815401808255809150509060018203906000526020600020016000909192909190915055506000600160076000600360009054906101000a900473ffffffffffffffffffffffffffffffffffffffff1673ffffffffffffffffffffffffffffffffffffffff1673ffffffffffffffffffffffffffffffffffffffff168152602001908152602001600020805490500390508060086000600360009054906101000a900473ffffffffffffffffffffffffffffffffffffffff1673ffffffffffffffffffffffffffffffffffffffff1673ffffffffffffffffffffffffffffffffffffffff16815260200190815260200160002060006005548152602001908152602001600020819055506117b86001600554611eec90919063ffffffff16565b600581905550819250505095945050505050565b60096020528060005260406000206000915054906101000a900473ffffffffffffffffffffffffffffffffffffffff1681565b60055481565b5050565b60028054600181600116156101000203166002900480601f01602080910402602001604051908101604052809291908181526020018280546001816001161561010002031660029004801561189f5780601f106118745761010080835404028352916020019161189f565b820191906000526020600020905b81548152906001019060200180831161188257829003601f168201915b505050505081565b5050505050565b6008602052816000526040600020602052806000526040600020600091509150505481565b60018054600181600116156101000203166002900480601f0160208091040260200160405190810160405280929190818152602001828054600181600116156101000203166002900480156119695780601f1061193e57610100808354040283529160200191611969565b820191906000526020600020905b81548152906001019060200180831161194c57829003601f168201915b505050505081565b60006001905092915050565b6000806009600084815260200190815260200160002060009054906101000a900473ffffffffffffffffffffffffffffffffffffffff169050600073ffffffffffffffffffffffffffffffffffffffff168173ffffffffffffffffffffffffffffffffffffffff16146119f45760019150506119fa565b60009150505b919050565b600080611a0b8361197d565b611a4a576040517f08c379a0000000000000000000000000000000000000000000000000000000008152600401611a4190612c7a565b60405180910390fd5b600860008573ffffffffffffffffffffffffffffffffffffffff1673ffffffffffffffffffffffffffffffffffffffff16815260200190815260200160002060008481526020019081526020016000205490506001600760008673ffffffffffffffffffffffffffffffffffffffff1673ffffffffffffffffffffffffffffffffffffffff168152602001908152602001600020805490501115611c36576000600760008673ffffffffffffffffffffffffffffffffffffffff1673ffffffffffffffffffffffffffffffffffffffff1681526020019081526020016000206001600760008873ffffffffffffffffffffffffffffffffffffffff1673ffffffffffffffffffffffffffffffffffffffff168152602001908152602001600020805490500381548110611b7957fe5b9060005260206000200154905080600760008773ffffffffffffffffffffffffffffffffffffffff1673ffffffffffffffffffffffffffffffffffffffff1681526020019081526020016000208381548110611bd157fe5b906000526020600020018190555081600860008773ffffffffffffffffffffffffffffffffffffffff1673ffffffffffffffffffffffffffffffffffffffff168152602001908152602001600020600083815260200190815260200160002081905550505b600760008573ffffffffffffffffffffffffffffffffffffffff1673ffffffffffffffffffffffffffffffffffffffff168152602001908152602001600020805480611c7e57fe5b60019003818190600052602060002001600090559055600860008573ffffffffffffffffffffffffffffffffffffffff1673ffffffffffffffffffffffffffffffffffffffff1681526020019081526020016000206000848152602001908152602001600020600090556009600084815260200190815260200160002060006101000a81549073ffffffffffffffffffffffffffffffffffffffff0219169055600191509250929050565b6000808360048481548110611d3a57fe5b906000526020600020906007020160000160006101000a81548173ffffffffffffffffffffffffffffffffffffffff021916908373ffffffffffffffffffffffffffffffffffffffff160217905550836009600085815260200190815260200160002060006101000a81548173ffffffffffffffffffffffffffffffffffffffff021916908373ffffffffffffffffffffffffffffffffffffffff160217905550600760008573ffffffffffffffffffffffffffffffffffffffff1673ffffffffffffffffffffffffffffffffffffffff1681526020019081526020016000208390806001815401808255809150509060018203906000526020600020016000909192909190915055506001600760008673ffffffffffffffffffffffffffffffffffffffff1673ffffffffffffffffffffffffffffffffffffffff1681526020019081526020016000208054905003905080600860008673ffffffffffffffffffffffffffffffffffffffff1673ffffffffffffffffffffffffffffffffffffffff168152602001908152602001600020600085815260200190815260200160002081905550600191509250929050565b600080828401905083811015611f37576040517f08c379a0000000000000000000000000000000000000000000000000000000008152600401611f2e90612b7a565b60405180910390fd5b8091505092915050565b6040518060e00160405280600073ffffffffffffffffffffffffffffffffffffffff1681526020016000815260200160608152602001600081526020016060815260200160608152602001600081525090565b828054600181600116156101000203166002900490600052602060002090601f016020900481019282601f10611fd557805160ff1916838001178555612003565b82800160010185558215612003579182015b82811115612002578251825591602001919060010190611fe7565b5b5090506120109190612014565b5090565b61203691905b8082111561203257600081600090555060010161201a565b5090565b90565b60008135905061204881612e6f565b92915050565b60008135905061205d81612e86565b92915050565b60008135905061207281612e9d565b92915050565b60008083601f84011261208a57600080fd5b8235905067ffffffffffffffff8111156120a357600080fd5b6020830191508360018202830111156120bb57600080fd5b9250929050565b600082601f8301126120d357600080fd5b81356120e66120e182612d04565b612cd7565b9150808252602083016020830185838301111561210257600080fd5b61210d838284612e1c565b50505092915050565b60008135905061212581612eb4565b92915050565b60006020828403121561213d57600080fd5b600061214b84828501612039565b91505092915050565b6000806040838503121561216757600080fd5b600061217585828601612039565b925050602061218685828601612039565b9150509250929050565b6000806000606084860312156121a557600080fd5b60006121b386828701612039565b93505060206121c486828701612039565b92505060406121d586828701612116565b9150509250925092565b6000806000806000608086880312156121f757600080fd5b600061220588828901612039565b955050602061221688828901612039565b945050604061222788828901612116565b935050606086013567ffffffffffffffff81111561224457600080fd5b61225088828901612078565b92509250509295509295909350565b6000806040838503121561227257600080fd5b600061228085828601612039565b92505060206122918582860161204e565b9150509250929050565b600080604083850312156122ae57600080fd5b60006122bc85828601612039565b92505060206122cd85828601612116565b9150509250929050565b6000602082840312156122e957600080fd5b60006122f784828501612063565b91505092915050565b600080600080600060a0868803121561231857600080fd5b600086013567ffffffffffffffff81111561233257600080fd5b61233e888289016120c2565b955050602061234f88828901612116565b945050604086013567ffffffffffffffff81111561236c57600080fd5b612378888289016120c2565b935050606086013567ffffffffffffffff81111561239557600080fd5b6123a1888289016120c2565b92505060806123b288828901612116565b9150509295509295909350565b6000602082840312156123d157600080fd5b60006123df84828501612116565b91505092915050565b60006123f48383612979565b905092915050565b61240581612da8565b82525050565b61241481612d96565b82525050565b61242381612d96565b82525050565b600061243482612d40565b61243e8185612d63565b93508360208202850161245085612d30565b8060005b8581101561248c578484038952815161246d85826123e8565b945061247883612d56565b925060208a01995050600181019050612454565b50829750879550505050505092915050565b6124a781612dba565b82525050565b60006124b882612d4b565b6124c28185612d74565b93506124d2818560208601612e2b565b6124db81612e5e565b840191505092915050565b60006124f182612d4b565b6124fb8185612d85565b935061250b818560208601612e2b565b61251481612e5e565b840191505092915050565b600061252c602483612d85565b91507f76616c7565206d75737420626520686967686572207468656e2074686520707260008301527f69636520000000000000000000000000000000000000000000000000000000006020830152604082019050919050565b6000612592601b83612d85565b91507f536166654d6174683a206164646974696f6e206f766572666c6f7700000000006000830152602082019050919050565b60006125d2602483612d85565b91507f4552433732313a207472616e7366657220746f20746865207a65726f2061646460008301527f72657373000000000000000000000000000000000000000000000000000000006020830152604082019050919050565b6000612638601983612d85565b91507f746f6b656e20646f6573206e6f742065786973742062686169000000000000006000830152602082019050919050565b6000612678602a83612d85565b91507f4552433732313a2062616c616e636520717565727920666f7220746865207a6560008301527f726f2061646472657373000000000000000000000000000000000000000000006020830152604082019050919050565b60006126de602983612d85565b91507f4552433732313a206f776e657220717565727920666f72206e6f6e657869737460008301527f656e7420746f6b656e00000000000000000000000000000000000000000000006020830152604082019050919050565b6000612744602983612d85565b91507f4552433732313a207472616e73666572206f6620746f6b656e2074686174206960008301527f73206e6f74206f776e00000000000000000000000000000000000000000000006020830152604082019050919050565b60006127aa602c83612d85565b91507f4552433732313a20496e76616c696420746f6b656e4964202d20746f6b656e4960008301527f642063616e2774206265203000000000000000000000000000000000000000006020830152604082019050919050565b6000612810603083612d85565b91507f546869732066756e6374696f6e20697320616c6c6f77656420666f7220636f6e60008301527f7472616374206f776e6572206f6e6c79000000000000000000000000000000006020830152604082019050919050565b6000612876602683612d85565b91507f4552433732313a496e76616c696420546f6b656e202d20546f6b656e206e6f7460008301527f20657869737400000000000000000000000000000000000000000000000000006020830152604082019050919050565b600060e0830160008301516128e7600086018261240b565b5060208301516128fa6020860182612a23565b506040830151848203604086015261291282826124ad565b91505060608301516129276060860182612a23565b506080830151848203608086015261293f82826124ad565b91505060a083015184820360a086015261295982826124ad565b91505060c083015161296e60c0860182612a23565b508091505092915050565b600060e083016000830151612991600086018261240b565b5060208301516129a46020860182612a23565b50604083015184820360408601526129bc82826124ad565b91505060608301516129d16060860182612a23565b50608083015184820360808601526129e982826124ad565b91505060a083015184820360a0860152612a0382826124ad565b91505060c0830151612a1860c0860182612a23565b508091505092915050565b612a2c81612e12565b82525050565b612a3b81612e12565b82525050565b6000602082019050612a56600083018461241a565b92915050565b6000602082019050612a7160008301846123fc565b92915050565b600060e082019050612a8c600083018a61241a565b612a996020830189612a32565b8181036040830152612aab81886124e6565b9050612aba6060830187612a32565b8181036080830152612acc81866124e6565b905081810360a0830152612ae081856124e6565b9050612aef60c0830184612a32565b98975050505050505050565b60006020820190508181036000830152612b158184612429565b905092915050565b6000602082019050612b32600083018461249e565b92915050565b60006020820190508181036000830152612b5281846124e6565b905092915050565b60006020820190508181036000830152612b738161251f565b9050919050565b60006020820190508181036000830152612b9381612585565b9050919050565b60006020820190508181036000830152612bb3816125c5565b9050919050565b60006020820190508181036000830152612bd38161262b565b9050919050565b60006020820190508181036000830152612bf38161266b565b9050919050565b60006020820190508181036000830152612c13816126d1565b9050919050565b60006020820190508181036000830152612c3381612737565b9050919050565b60006020820190508181036000830152612c538161279d565b9050919050565b60006020820190508181036000830152612c7381612803565b9050919050565b60006020820190508181036000830152612c9381612869565b9050919050565b60006020820190508181036000830152612cb481846128cf565b905092915050565b6000602082019050612cd16000830184612a32565b92915050565b6000604051905081810181811067ffffffffffffffff82111715612cfa57600080fd5b8060405250919050565b600067ffffffffffffffff821115612d1b57600080fd5b601f19601f8301169050602081019050919050565b6000819050602082019050919050565b600081519050919050565b600081519050919050565b6000602082019050919050565b600082825260208201905092915050565b600082825260208201905092915050565b600082825260208201905092915050565b6000612da182612df2565b9050919050565b6000612db382612df2565b9050919050565b60008115159050919050565b60007fffffffff0000000000000000000000000000000000000000000000000000000082169050919050565b600073ffffffffffffffffffffffffffffffffffffffff82169050919050565b6000819050919050565b82818337600083830152505050565b60005b83811015612e49578082015181840152602081019050612e2e565b83811115612e58576000848401525b50505050565b6000601f19601f8301169050919050565b612e7881612d96565b8114612e8357600080fd5b50565b612e8f81612dba565b8114612e9a57600080fd5b50565b612ea681612dc6565b8114612eb157600080fd5b50565b612ebd81612e12565b8114612ec857600080fd5b5056fea365627a7a72315820c26d0a677cba2964ae618a58425e634f3163f389364de68983756a36c502db776c6578706572696d656e74616cf564736f6c63430005100040",
  "source": "pragma solidity ^0.5.0;\r\npragma experimental ABIEncoderV2;\r\n\r\nimport \"./IERC721.sol\";\r\nimport \"./ERC165.sol\";\r\nimport \"./SafeMath.sol\";\r\n\r\n\r\n/**\r\n * @title ERC721 Non-Fungible Token Standard basic implementation\r\n * @dev see https://eips.ethereum.org/EIPS/eip-721\r\n */\r\ncontract ERC721 is ERC165,IERC721 {\r\n    using SafeMath for uint256;\r\n    \r\n    \r\n    event Transfer(\r\n        address indexed from, \r\n        address indexed to, \r\n        uint256 indexed tokenId);\r\n\r\n    /**\r\n     * @dev Emitted when `owner` enables `approved` to manage the `tokenId` token.\r\n     */\r\n    event Approval(\r\n        address indexed owner, \r\n        address indexed approved, \r\n        uint256 indexed tokenId);\r\n\r\n    /**\r\n     * @dev Emitted when `owner` enables or disables (`approved`) `operator` to manage all of its assets.\r\n     */\r\n    event ApprovalForAll(address indexed owner, address indexed operator, bool approved);\r\n\r\n/*\r\n     *     bytes4(keccak256('balanceOf(address)')) == 0x70a08231\r\n     *     bytes4(keccak256('ownerOf(uint256)')) == 0x6352211e\r\n     *     bytes4(keccak256('approve(address,uint256)')) == 0x095ea7b3\r\n     *     bytes4(keccak256('getApproved(uint256)')) == 0x081812fc\r\n     *     bytes4(keccak256('setApprovalForAll(address,bool)')) == 0xa22cb465\r\n     *     bytes4(keccak256('isApprovedForAll(address,address)')) == 0xe985e9c5\r\n     *     bytes4(keccak256('transferFrom(address,address,uint256)')) == 0x23b872dd\r\n     *     bytes4(keccak256('safeTransferFrom(address,address,uint256)')) == 0x42842e0e\r\n     *     bytes4(keccak256('safeTransferFrom(address,address,uint256,bytes)')) == 0xb88d4fde\r\n     *\r\n     *     => 0x70a08231 ^ 0x6352211e ^ 0x095ea7b3 ^ 0x081812fc ^\r\n     *        0xa22cb465 ^ 0xe985e9c ^ 0x23b872dd ^ 0x42842e0e ^ 0xb88d4fde == 0x80ac58cd\r\n     */\r\n    bytes4 private constant _INTERFACE_ID_ERC721 = 0x80ac58cd;\r\n\r\n    // /*\r\n    //  *     bytes4(keccak256('name()')) == 0x06fdde03\r\n    //  *     bytes4(keccak256('symbol()')) == 0x95d89b41\r\n    //  *     bytes4(keccak256('tokenURI(uint256)')) == 0xc87b56dd\r\n    //  *\r\n    //  *     => 0x06fdde03 ^ 0x95d89b41 ^ 0xc87b56dd == 0x5b5e139f\r\n    //  */\r\n    // bytes4 private constant _INTERFACE_ID_ERC721_METADATA = 0x5b5e139f;\r\n\r\n    // /*\r\n    //  *     bytes4(keccak256('totalSupply()')) == 0x18160ddd\r\n    //  *     bytes4(keccak256('tokenOfOwnerByIndex(address,uint256)')) == 0x2f745c59\r\n    //  *     bytes4(keccak256('tokenByIndex(uint256)')) == 0x4f6ccce7\r\n    //  *\r\n    //  *     => 0x18160ddd ^ 0x2f745c59 ^ 0x4f6ccce7 == 0x780e9d63\r\n    //  */\r\n    // bytes4 private constant _INTERFACE_ID_ERC721_ENUMERABLE = 0x780e9d63;\r\n    string public _name;\r\n\r\n    // Token symbol\r\n    string public _symbol;\r\n    \r\n    // Token Contract Owner\r\n    address payable public _contractOwner;\r\n    \r\n    struct petObj {\r\n        address owner;\r\n        uint256 id;\r\n        string uri;\r\n        uint256 price_in_wei;\r\n        string breed;\r\n        string location;\r\n        uint256 age;\r\n    }\r\n\r\n    //mapping (uint256 => petObj) public petObjArray;\r\n    petObj[] public petObjArray1;\r\n    \r\n    constructor () public {\r\n        _name = \"waqas-petShop\";\r\n        _symbol = \"WPS\";\r\n        _contractOwner = msg.sender;\r\n        \r\n       \r\n\r\n        // register the supported interfaces to conform to ERC721 via ERC165\r\n        _registerInterface(_INTERFACE_ID_ERC721);\r\n    }\r\n    \r\n    uint256 public tokenIdCounter = 0;\r\n    \r\n    \r\n    \r\n    uint _totalSupply;\r\n   \r\n    // Mapping from owner address to their set of owned tokens\r\n    mapping (address => uint256[]) private _ownerTokens;\r\n    \r\n\r\n    //mapping for holding index of token in owner \r\n    mapping(address => mapping(uint256 => uint256)) public _ownerTokenIndex;\r\n    \r\n\r\n    // token mapping from token ids to their owners\r\n    mapping(uint256 => address) public _tokenOwners;\r\n    \r\n    \r\n    function _mint(string memory petUri, uint256 price, string memory breed, string memory location, uint256 age) public returns (petObj memory) {\r\n        require(msg.sender == _contractOwner, \"This function is allowed for contract owner only\");\r\n        \r\n        \r\n        \r\n        //require(!_exists(tokenId), \"ERC721: token already minted\");\r\n\r\n        _totalSupply = _totalSupply.add(1);\r\n        \r\n                                                                                                                                        //state update on adding token\r\n                                                                                                                                        // _addToken(to,tokenIdCounter);\r\n        petObj memory tx1 = petObj(_contractOwner,tokenIdCounter,petUri,price, breed,location,age);\r\n        petObjArray1.push(tx1);\r\n        \r\n        \r\n        //assign owner to token\r\n        _tokenOwners[tokenIdCounter] =  _contractOwner;\r\n        \r\n        //push new token into owner's posession\r\n        _ownerTokens[_contractOwner].push(tokenIdCounter);\r\n        \r\n        //stored new index \r\n        uint256 newIndex = _ownerTokens[_contractOwner].length-1;\r\n        _ownerTokenIndex[_contractOwner][tokenIdCounter]= newIndex;\r\n        \r\n        \r\n        tokenIdCounter = tokenIdCounter.add(1);\r\n        return tx1;\r\n        \r\n        \r\n        \r\n        \r\n        emit Transfer(msg.sender, msg.sender, tokenIdCounter);\r\n        \r\n    }\r\n    /**\r\n     * @dev Returns the number of tokens in ``owner``'s account.\r\n     */\r\n    function balanceOf(address owner) external  view returns (uint256 balance){\r\n        \r\n        require(owner != address(0), \"ERC721: balance query for the zero address\");\r\n        \r\n        return _ownerTokens[owner].length;\r\n    }\r\n    function ownerOf(uint256 tokenId) public  view returns (address owner) {    \r\n        address owner1 = _tokenOwners[tokenId];\r\n        require(owner1 != address(0), \"ERC721: owner query for nonexistent token\");\r\n\r\n        return owner1;\r\n    }\r\n    function _transfer(address to, uint256 tokenId) public  {\r\n        require(tokenId > 0, \"ERC721: Invalid tokenId - tokenId can't be 0\");\r\n        require(ownerOf(tokenId) == msg.sender, \"ERC721: transfer of token that is not own\");\r\n        require(to != address(0), \"ERC721: transfer to the zero address\");\r\n\r\n       \r\n\r\n        //delete of from address;\r\n        _deleteToken(msg.sender,tokenId);\r\n        \r\n        //adding new token\r\n        _addToken(to,tokenId);\r\n        \r\n        emit Transfer(msg.sender, to, tokenId);\r\n    }\r\n    function _addToken(address transferror, uint tokenId) internal returns(bool success, uint256 newIndex){\r\n        //token shouldn't be exist;\r\n        // require(_exists(tokenId),\"ERC721: Token does not exist\");\r\n        \r\n        petObjArray1[tokenId].owner = transferror;\r\n        //assign owner to token\r\n        _tokenOwners[tokenId] =  transferror;\r\n        \r\n        //push new token into owner's posession\r\n        _ownerTokens[transferror].push(tokenId);\r\n        \r\n        //stored new index \r\n        newIndex = _ownerTokens[transferror].length-1;\r\n        _ownerTokenIndex[transferror][tokenId]= newIndex;\r\n    \r\n        success = true;\r\n    }\r\n    function _deleteToken(address from, uint tokenId) internal  returns(bool success, uint256 index){\r\n        require(_exists(tokenId),\"ERC721:Invalid Token - Token not exist\");\r\n        //require(_tokenOwners[tokenId] == from,\"ERC721: Invalid ownership - Token is not owned by owner\");\r\n        \r\n        index = _ownerTokenIndex[from][tokenId];\r\n        \r\n        \r\n        //more than one token swap last entry to current index\r\n        if(_ownerTokens[from].length>1){\r\n            uint lastToken = _ownerTokens[from][_ownerTokens[from].length-1];   \r\n            _ownerTokens[from][index] = lastToken;\r\n            _ownerTokenIndex[from][lastToken] = index;\r\n        }\r\n        //remove last entry\r\n        _ownerTokens[from].pop();\r\n        //remove Index\r\n        delete _ownerTokenIndex[from][tokenId];\r\n        //remove owner\r\n        delete _tokenOwners[tokenId];\r\n        success = true;\r\n    }\r\n    function _exists(uint256 tokenId) internal view returns (bool) {\r\n        \r\n        address owner = _tokenOwners[tokenId];\r\n        \r\n        if(owner != address(0))\r\n            return true;\r\n        else\r\n            return false;\r\n    }\r\n    \r\n    \r\n    function Buy(uint256 tokenID) public payable {\r\n        require(_exists(tokenID),\"token does not exist bhai\");\r\n        require(petObjArray1[tokenID].price_in_wei <= msg.value,\"value must be higher then the price \");\r\n        \r\n        address transferror = petObjArray1[tokenID].owner;\r\n        petObjArray1[tokenID].owner = msg.sender;\r\n        \r\n    \r\n    //Addition \r\n        _ownerTokens[msg.sender].push(tokenID);\r\n    \r\n        uint256 newIndex = _ownerTokens[msg.sender].length-1;\r\n        _ownerTokenIndex[msg.sender][tokenID]= newIndex;\r\n        \r\n        _tokenOwners[tokenID] = msg.sender;\r\n        \r\n        //mapping (address => uint256[]) private _ownerTokens;\r\n        //mapping(address => mapping(uint256 => uint256)) public _ownerTokenIndex;\r\n        //mapping(uint256 => address) internal _tokenOwners;\r\n        \r\n    //Deletion \r\n    \r\n        uint256 index = _ownerTokenIndex[transferror][tokenID];\r\n        \r\n        if(_ownerTokens[transferror].length>1){\r\n            uint lastToken = _ownerTokens[transferror][_ownerTokens[transferror].length-1];   \r\n            _ownerTokens[transferror][index] = lastToken;\r\n            _ownerTokenIndex[transferror][lastToken] = index;\r\n        }\r\n        _ownerTokens[transferror].pop();\r\n        \r\n        delete _ownerTokenIndex[transferror][tokenID];\r\n        //remove owner\r\n        //delete _tokenOwners[tokenID];\r\n        \r\n        \r\n    //Transfer Funds\r\n    \r\n            address payable wallet = address(uint160(transferror));\r\n            \r\n            wallet.transfer(msg.value);\r\n    \r\n        \r\n        \r\n        \r\n         \r\n    }\r\n    function transferFrom(address from, address to, uint256 tokenId)  external{\r\n        \r\n        address abc = address(0);\r\n        }\r\n    function approve(address to, uint256 tokenId)  external{ \r\n        \r\n    }\r\n    function getApproved(uint256 tokenId) external  view returns (address operator){ }\r\n    function setApprovalForAll(address operator, bool _approved)  external{ }\r\n    function isApprovedForAll(address owner, address operator) external   view returns (bool){\r\n        return true;\r\n    }\r\n    function safeTransferFrom(address _from, address _to, uint256 _tokenId, bytes calldata data) external  payable{}\r\n    function safeTransferFrom(address _from, address _to, uint256 _tokenId) external payable{}\r\n    \r\n    function getData () public  view returns (petObj[] memory){\r\n    \r\n    return petObjArray1;\r\n        \r\n    }\r\n    \r\n    function getBalance () public view returns (uint256){\r\n        return address(this).balance;\r\n    }\r\n    \r\n    \r\n    \r\n}\r\n\r\n\r\n\r\n",
  "sourcePath": "D:/BlockChain/4th_Quarter/drizzle-cryptoKitty2/contracts/ERC721.sol",
  "compiler": {
    "name": "solc",
    "version": "0.5.16+commit.9c3226ce.Emscripten.clang"
  },
  "schemaVersion": "3.3.4",
  "updatedAt": "2021-03-19T19:59:32.353Z",
  "networkType": "ethereum",
  "devdoc": {
    "details": "see https://eips.ethereum.org/EIPS/eip-721",
    "methods": {
      "balanceOf(address)": {
        "details": "Returns the number of tokens in ``owner``'s account."
      },
      "supportsInterface(bytes4)": {
        "details": "See {IERC165-supportsInterface}.      * Time complexity O(1), guaranteed to always use less than 30 000 gas."
      }
    },
    "title": "ERC721 Non-Fungible Token Standard basic implementation"
  },
  "userdoc": {
    "methods": {}
  }
}